:020000040000FA
:020000000528D1
:080008002428831688018312ED
:10001000880183160313D0308100831603130E303A
:100020009F008312FA3081008B16831603138030F1
:100030009F008316031305148316031708148312F5
:1000400003139F00000022283E200B192B200C1BBD
:10005000332042200900FA3081000C130B171F15C2
:1000600033200B1108009F149F18831603131E08DA
:10007000F00083120313700888000800FD00030ECF
:0E008000FE0008007E0E8300FD0E7D0E0800BF
:00000001FF
