:020000040000FA
:020000000528D1
:0800080024288316031388016C
:10001000831203138801D0308316031381008316E3
:10002000031380309F0083160313051483160317F0
:100030000814C130831203139F008B168B17000026
:100040000000000000001F28FF00030EFE000B1937
:100050002C280C1B3E284B280000C93083120313A8
:100060008100C130831203139F000C138316031306
:100070000C1783120B171F150B114B289F149F1879
:100080003F28831603131E08FD0083120313880004
:10009000831603130C137E0E8300FF0E7F0E0900E0
:02400E00C428C4
:02401000FF3E71
:00000001FF
