:020000040000FA
:020000000528D1
:080008002328831688018312EE
:1000100088018316D230810083120E309F008B1628
:100020008B168B17FA308100392000000000000089
:1000300000001528FE00030EFF0008007F0E83005D
:10004000FE0E7E0E08001A202D2083120313FA30B4
:1000500081000B118B161E2009009F149F182E285B
:10006000831603131E08F000831203137008880020
:1000700008008316031380309F00831603130514B2
:1000800083160317081483120313C1309F0008005E
:02400E00C428C4
:02401000FF3E71
:00000001FF
