:020000040000FA
:020000000528D1
:080008004428F901F8018316F8
:1000100003138801860183120313880186010610E9
:1000200006118316031380309F00831603130514F3
:1000300083160317081483120313C1309F0083161D
:100040000313D2308100831603130E309F008B16EA
:100050008B168B1783120313FA308100831203135C
:100060009001101490161016901190108E018F01AF
:10007000831603130C14831203130B1710140B10A5
:100080008B170000000041286F200B194B200B1824
:10009000552073200900662083120313AA308100C3
:1000A0000C130B118B168B1708000C10F90A723009
:1000B000F3007908F3067820101080308F008E014D
:1000C00010140B1710140B108B1708009F149F1897
:1000D0006728831603131E08F00086200800FE0020
:1000E000030EFF0008007F0E8300FE0E7E0E080048
:1000F00003197F2878088312031388000800F80A80
:10010000F901780883120313880008004B30F200CD
:100110007208700203199628031892288312031399
:100120000610080083120313061408008312031339
:0401300006100800AD
:00000001FF
