:020000040000FA
:020000000528D1
:080008004D28F901F801F70190
:10001000F601831203138801860187018316880184
:1000200086018701831603178801890106100611CE
:100030008316031380309F0083160313FF3085005F
:10004000831603178801081483120313C1309F001D
:1000500083160313D2308100831603130E309F00E2
:100060008B168B168B1783120313FA3081008312C1
:1000700003139001101490161016901190108E0119
:100080008F01831603130C14831203130B17101420
:100090000B108B17000000004A280B1950285E280F
:1000A0008220752083120313AA3081000C130B11D8
:1000B0008B160B170C178B17862009008220F90A64
:1000C000F60A7230F3007908F3068B20B620101080
:1000D00080308F008E0110140C100B170B111014B0
:1000E0000B108B178620862009009F149F187628F6
:1000F000831203131E08F0008700031370088700A3
:1001000097200800FE00030EFF0008007F0E83000A
:10011000FE0E7E0E0800031990287808880008005B
:10012000F80AF70AAC20F901780888000800831261
:100130008030F200720870020319A8280318A4285E
:100140008312031306100800831203130614080019
:1001500083120313061008000830F4007708F40631
:100160000319B32808000615F70108004530F3000D
:100170007608F3060319BD2808000611F6010800E9
:00000001FF
