:020000040000FA
:020000000528D1
:06000A008501860187015B
:100010008801831603138701880100309F003F3059
:100020008500003086008312162031280710013029
:10003000880025200C30880025203C3088002520B1
:100040000714080007142520080087147420742062
:10005000871074200800071001308800252007143D
:100060000800C1309F001F156F201F1935281E087A
:1000700086002B205430880022203D30880022202A
:1000800054203408880022203308880022203208B7
:1000900088002220203088002220DF3088002220A3
:1000A0004330880022203328B401B301B2011E0876
:1000B0001E07B50064303502031C6128B500B40A80
:1000C0005A280A303502031C6828B500B30A612893
:1000D0003508B2003030B204B304B4040800303044
:1000E000A000A00B71280800FF30B100FF30B00065
:0A00F000B00B7828B10B7628080049
:00000001FF
