:020000040000FA
:020000000528D1
:08000800202883160313880170
:1000100083128801F901F80190011014901610164E
:10002000901190108E018F01831603130C1483120C
:1000300003130B1710140B108B17000000001D2862
:1000400033200C10F90A7230FB007908FB063C20C3
:10005000101080308F008E0110140B1710140B102D
:100060008B1737200900FE00030EFF0008007F0EEB
:100070008300FE0E7E0E08000319412878088800D0
:0C0080000800F80AF90178088800080060
:00000001FF
